Ethers.js: { hash: '0x9f026429454ece36688578098a3974be22e1407ff9170512c11934af4ea63e3d',
	blockHash: '0xb18de7e3d9ebee09f33b9483afb90f6bb5707620fb26f3eab3a1cd1a89a86d12',
	blockNumber: 11,
	transactionIndex: 0,
	confirmations: 4,
	from: '0xD9995BAE12FEe327256FFec1e3184d492bD94C31',
	gasPrice: BigNumber { _hex: '0x77359400'
	},
	gasLimit: BigNumber { _hex: '0x0dd3a6'
	},
	to: '0x0000000000000000000000000000000000000000',
	value: BigNumber { _hex: '0x0'
	},
	nonce: 6,
	data: '0x608060405234801561001057600080fd5b50336000806101000a81548173ffffffffffffffffffffffffffffffffffffffff021916908373ffffffffffffffffffffffffffffffffffffffff16021790555060008060146101000a81548160ff021916908360ff160217905550610c1a8061007b6000396000f3fe60806040526004361061005c576000357c0100000000000000000000000000000000000000000000000000000000900480631965fe351461005e57806362f2f317146101345780638d96e7331461021f578063a3df62d714610312575b005b34801561006a57600080fd5b506101326004803603604081101561008157600080fd5b810190808035906020019064010000000081111561009e57600080fd5b8201836020820111156100b057600080fd5b803590602001918460018302840111640100000000831117156100d257600080fd5b91908080601f016020809104026020016040519081016040528093929190818152602001838380828437600081840152601f19601f820116905080830192505050505050509192919290803561ffff169060200190929190505050610343565b005b34801561014057600080fd5b506101706004803603602081101561015757600080fd5b81019080803560ff169060200190929190505050610585565b60405180806020018660ff1660ff1681526020018561ffff1661ffff1681526020018460ff1660ff16815260200183151515158152602001828103825287818151815260200191508051906020019080838360005b838110156101e05780820151818401526020810190506101c5565b50505050905090810190601f16801561020d5780820380516001836020036101000a031916815260200191505b50965050505050505060405180910390f35b34801561022b57600080fd5b5061025b6004803603602081101561024257600080fd5b81019080803560ff16906020019092919050505061074f565b60405180806020018660ff1660ff1681526020018561ffff1661ffff16815260200184600181111561028957fe5b60ff16815260200183151515158152602001828103825287818151815260200191508051906020019080838360005b838110156102d35780820151818401526020810190506102b8565b50505050905090810190601f1680156103005780820380516001836020036101000a031916815260200191505b50965050505050505060405180910390f35b6103416004803603602081101561032857600080fd5b81019080803560ff169060200190929190505050610852565b005b60a060405190810160405280838152602001600060149054906101000a900460ff1660ff1681526020018261ffff1681526020016000600181111561038457fe5b815260200160011515815250600160008060149054906101000a900460ff1660ff1660ff16815260200190815260200160002060008201518160000190805190602001906103d3929190610b49565b5060208201518160010160006101000a81548160ff021916908360ff16021790555060408201518160010160016101000a81548161ffff021916908361ffff16021790555060608201518160010160036101000a81548160ff0219169083600181111561043c57fe5b021790555060808201518160010160046101000a81548160ff0219169083151502179055509050507fb7dc24968c35d5b9a67f3842cf7d89fa46d60605bc49d559cf0656d5dac126bb82600060149054906101000a900460ff1683600060018111156104a457fe5b600160405180806020018660ff1660ff1681526020018561ffff1661ffff1681526020018460ff1660ff16815260200183151515158152602001828103825287818151815260200191508051906020019080838360005b838110156105165780820151818401526020810190506104fb565b50505050905090810190601f1680156105435780820380516001836020036101000a031916815260200191505b50965050505050505060405180910390a16001600060149054906101000a900460ff1601600060146101000a81548160ff021916908360ff1602179055505050565b606060008060008085600160008260ff1660ff16815260200190815260200160002060010160049054906101000a900460ff1615156105c357600080fd5b600160008860ff1660ff1681526020019081526020016000206000018054600181600116156101000203166002900480601f0160208091040260200160405190810160405280929190818152602001828054600181600116156101000203166002900480156106735780601f1061064857610100808354040283529160200191610673565b820191906000526020600020905b81548152906001019060200180831161065657829003601f168201915b50505050509550600160008860ff1660ff16815260200190815260200160002060010160009054906101000a900460ff169450600160008860ff1660ff16815260200190815260200160002060010160019054906101000a900461ffff169350600160008860ff1660ff16815260200190815260200160002060010160039054906101000a900460ff16600181111561070857fe5b9250600160008860ff1660ff16815260200190815260200160002060010160049054906101000a900460ff1691508585858585955095509550955095505091939590929450565b6001602052806000526040600020600091509050806000018054600181600116156101000203166002900480601f0160208091040260200160405190810160405280929190818152602001828054600181600116156101000203166002900480156107fb5780601f106107d0576101008083540402835291602001916107fb565b820191906000526020600020905b8154815290600101906020018083116107de57829003601f168201915b5050505050908060010160009054906101000a900460ff16908060010160019054906101000a900461ffff16908060010160039054906101000a900460ff16908060010160049054906101000a900460ff16905085565b80600160008260ff1660ff16815260200190815260200160002060010160049054906101000a900460ff16151561088857600080fd5b816000600181111561089657fe5b600160008360ff1660ff16815260200190815260200160002060010160039054906101000a900460ff1660018111156108cb57fe5b1415156108d757600080fd5b600160008460ff1660ff16815260200190815260200160002060010160019054906101000a900461ffff168061ffff16341015151561091557600080fd5b60018060008660ff1660ff16815260200190815260200160002060010160036101000a81548160ff0219169083600181111561094d57fe5b02179055506000600160008660ff1660ff16815260200190815260200160002060010160046101000a81548160ff0219169083151502179055507fbdae531150535661df86d11bfeae60181a0083647dd702bd6c6eb53ca1c73ec7600160008660ff1660ff168152602001908152602001600020600001600160008760ff1660ff16815260200190815260200160002060010160009054906101000a900460ff16600160008860ff1660ff16815260200190815260200160002060010160019054906101000a900461ffff16600160008960ff1660ff16815260200190815260200160002060010160039054906101000a900460ff166001811115610a4e57fe5b600160008a60ff1660ff16815260200190815260200160002060010160049054906101000a900460ff1660405180806020018660ff1660ff1681526020018561ffff1661ffff1681526020018460ff1660ff16815260200183151515158152602001828103825287818154600181600116156101000203166002900481526020019150805460018160011615610100020316600290048015610b315780601f10610b0657610100808354040283529160200191610b31565b820191906000526020600020905b815481529060010190602001808311610b1457829003601f168201915b5050965050505050505060405180910390a150505050565b828054600181600116156101000203166002900490600052602060002090601f016020900481019282601f10610b8a57805160ff1916838001178555610bb8565b82800160010185558215610bb8579182015b82811115610bb7578251825591602001919060010190610b9c565b5b509050610bc59190610bc9565b5090565b610beb91905b80821115610be7576000816000905550600101610bcf565b5090565b9056fea165627a7a723058205642975b748ac1af127a0dd1b653a19d6071f9353ffa9c78b3fed9f13a11ecba0029',
	r: '0x548ba929bde5f414bd05d0b00a6cc7bc1b3dc6045dc004d54345f73856fcb6dc',
	s: '0x057a5565fa443c87e65dc59d2badcaa21c9953b0078e95f4dbe068e4bdd4401a',
	v: 3095651381354,
	creates: null,
	raw: '0xf90d01068477359400830dd3a694000000000000000000000000000000000000000080b90c95608060405234801561001057600080fd5b50336000806101000a81548173ffffffffffffffffffffffffffffffffffffffff021916908373ffffffffffffffffffffffffffffffffffffffff16021790555060008060146101000a81548160ff021916908360ff160217905550610c1a8061007b6000396000f3fe60806040526004361061005c576000357c0100000000000000000000000000000000000000000000000000000000900480631965fe351461005e57806362f2f317146101345780638d96e7331461021f578063a3df62d714610312575b005b34801561006a57600080fd5b506101326004803603604081101561008157600080fd5b810190808035906020019064010000000081111561009e57600080fd5b8201836020820111156100b057600080fd5b803590602001918460018302840111640100000000831117156100d257600080fd5b91908080601f016020809104026020016040519081016040528093929190818152602001838380828437600081840152601f19601f820116905080830192505050505050509192919290803561ffff169060200190929190505050610343565b005b34801561014057600080fd5b506101706004803603602081101561015757600080fd5b81019080803560ff169060200190929190505050610585565b60405180806020018660ff1660ff1681526020018561ffff1661ffff1681526020018460ff1660ff16815260200183151515158152602001828103825287818151815260200191508051906020019080838360005b838110156101e05780820151818401526020810190506101c5565b50505050905090810190601f16801561020d5780820380516001836020036101000a031916815260200191505b50965050505050505060405180910390f35b34801561022b57600080fd5b5061025b6004803603602081101561024257600080fd5b81019080803560ff16906020019092919050505061074f565b60405180806020018660ff1660ff1681526020018561ffff1661ffff16815260200184600181111561028957fe5b60ff16815260200183151515158152602001828103825287818151815260200191508051906020019080838360005b838110156102d35780820151818401526020810190506102b8565b50505050905090810190601f1680156103005780820380516001836020036101000a031916815260200191505b50965050505050505060405180910390f35b6103416004803603602081101561032857600080fd5b81019080803560ff169060200190929190505050610852565b005b60a060405190810160405280838152602001600060149054906101000a900460ff1660ff1681526020018261ffff1681526020016000600181111561038457fe5b815260200160011515815250600160008060149054906101000a900460ff1660ff1660ff16815260200190815260200160002060008201518160000190805190602001906103d3929190610b49565b5060208201518160010160006101000a81548160ff021916908360ff16021790555060408201518160010160016101000a81548161ffff021916908361ffff16021790555060608201518160010160036101000a81548160ff0219169083600181111561043c57fe5b021790555060808201518160010160046101000a81548160ff0219169083151502179055509050507fb7dc24968c35d5b9a67f3842cf7d89fa46d60605bc49d559cf0656d5dac126bb82600060149054906101000a900460ff1683600060018111156104a457fe5b600160405180806020018660ff1660ff1681526020018561ffff1661ffff1681526020018460ff1660ff16815260200183151515158152602001828103825287818151815260200191508051906020019080838360005b838110156105165780820151818401526020810190506104fb565b50505050905090810190601f1680156105435780820380516001836020036101000a031916815260200191505b50965050505050505060405180910390a16001600060149054906101000a900460ff1601600060146101000a81548160ff021916908360ff1602179055505050565b606060008060008085600160008260ff1660ff16815260200190815260200160002060010160049054906101000a900460ff1615156105c357600080fd5b600160008860ff1660ff1681526020019081526020016000206000018054600181600116156101000203166002900480601f0160208091040260200160405190810160405280929190818152602001828054600181600116156101000203166002900480156106735780601f1061064857610100808354040283529160200191610673565b820191906000526020600020905b81548152906001019060200180831161065657829003601f168201915b50505050509550600160008860ff1660ff16815260200190815260200160002060010160009054906101000a900460ff169450600160008860ff1660ff16815260200190815260200160002060010160019054906101000a900461ffff169350600160008860ff1660ff16815260200190815260200160002060010160039054906101000a900460ff16600181111561070857fe5b9250600160008860ff1660ff16815260200190815260200160002060010160049054906101000a900460ff1691508585858585955095509550955095505091939590929450565b6001602052806000526040600020600091509050806000018054600181600116156101000203166002900480601f0160208091040260200160405190810160405280929190818152602001828054600181600116156101000203166002900480156107fb5780601f106107d0576101008083540402835291602001916107fb565b820191906000526020600020905b8154815290600101906020018083116107de57829003601f168201915b5050505050908060010160009054906101000a900460ff16908060010160019054906101000a900461ffff16908060010160039054906101000a900460ff16908060010160049054906101000a900460ff16905085565b80600160008260ff1660ff16815260200190815260200160002060010160049054906101000a900460ff16151561088857600080fd5b816000600181111561089657fe5b600160008360ff1660ff16815260200190815260200160002060010160039054906101000a900460ff1660018111156108cb57fe5b1415156108d757600080fd5b600160008460ff1660ff16815260200190815260200160002060010160019054906101000a900461ffff168061ffff16341015151561091557600080fd5b60018060008660ff1660ff16815260200190815260200160002060010160036101000a81548160ff0219169083600181111561094d57fe5b02179055506000600160008660ff1660ff16815260200190815260200160002060010160046101000a81548160ff0219169083151502179055507fbdae531150535661df86d11bfeae60181a0083647dd702bd6c6eb53ca1c73ec7600160008660ff1660ff168152602001908152602001600020600001600160008760ff1660ff16815260200190815260200160002060010160009054906101000a900460ff16600160008860ff1660ff16815260200190815260200160002060010160019054906101000a900461ffff16600160008960ff1660ff16815260200190815260200160002060010160039054906101000a900460ff166001811115610a4e57fe5b600160008a60ff1660ff16815260200190815260200160002060010160049054906101000a900460ff1660405180806020018660ff1660ff1681526020018561ffff1661ffff1681526020018460ff1660ff16815260200183151515158152602001828103825287818154600181600116156101000203166002900481526020019150805460018160011615610100020316600290048015610b315780601f10610b0657610100808354040283529160200191610b31565b820191906000526020600020905b815481529060010190602001808311610b1457829003601f168201915b5050965050505050505060405180910390a150505050565b828054600181600116156101000203166002900490600052602060002090601f016020900481019282601f10610b8a57805160ff1916838001178555610bb8565b82800160010185558215610bb8579182015b82811115610bb7578251825591602001919060010190610b9c565b5b509050610bc59190610bc9565b5090565b610beb91905b80821115610be7576000816000905550600101610bcf565b5090565b9056fea165627a7a723058205642975b748ac1af127a0dd1b653a19d6071f9353ffa9c78b3fed9f13a11ecba00298602d0c333706aa0548ba929bde5f414bd05d0b00a6cc7bc1b3dc6045dc004d54345f73856fcb6dca0057a5565fa443c87e65dc59d2badcaa21c9953b0078e95f4dbe068e4bdd4401a',
	networkId: 1547825690659,
	wait: [Function
	]
}


WEB3: { hash: '0x9f026429454ece36688578098a3974be22e1407ff9170512c11934af4ea63e3d',
	nonce: 6,
	blockHash: '0xb18de7e3d9ebee09f33b9483afb90f6bb5707620fb26f3eab3a1cd1a89a86d12',
	blockNumber: 11,
	transactionIndex: 0,
	from: '0xD9995BAE12FEe327256FFec1e3184d492bD94C31',
	to: null,
	value: '0',
	gas: 906150,
	gasPrice: '2000000000',
	input: '0x608060405234801561001057600080fd5b50336000806101000a81548173ffffffffffffffffffffffffffffffffffffffff021916908373ffffffffffffffffffffffffffffffffffffffff16021790555060008060146101000a81548160ff021916908360ff160217905550610c1a8061007b6000396000f3fe60806040526004361061005c576000357c0100000000000000000000000000000000000000000000000000000000900480631965fe351461005e57806362f2f317146101345780638d96e7331461021f578063a3df62d714610312575b005b34801561006a57600080fd5b506101326004803603604081101561008157600080fd5b810190808035906020019064010000000081111561009e57600080fd5b8201836020820111156100b057600080fd5b803590602001918460018302840111640100000000831117156100d257600080fd5b91908080601f016020809104026020016040519081016040528093929190818152602001838380828437600081840152601f19601f820116905080830192505050505050509192919290803561ffff169060200190929190505050610343565b005b34801561014057600080fd5b506101706004803603602081101561015757600080fd5b81019080803560ff169060200190929190505050610585565b60405180806020018660ff1660ff1681526020018561ffff1661ffff1681526020018460ff1660ff16815260200183151515158152602001828103825287818151815260200191508051906020019080838360005b838110156101e05780820151818401526020810190506101c5565b50505050905090810190601f16801561020d5780820380516001836020036101000a031916815260200191505b50965050505050505060405180910390f35b34801561022b57600080fd5b5061025b6004803603602081101561024257600080fd5b81019080803560ff16906020019092919050505061074f565b60405180806020018660ff1660ff1681526020018561ffff1661ffff16815260200184600181111561028957fe5b60ff16815260200183151515158152602001828103825287818151815260200191508051906020019080838360005b838110156102d35780820151818401526020810190506102b8565b50505050905090810190601f1680156103005780820380516001836020036101000a031916815260200191505b50965050505050505060405180910390f35b6103416004803603602081101561032857600080fd5b81019080803560ff169060200190929190505050610852565b005b60a060405190810160405280838152602001600060149054906101000a900460ff1660ff1681526020018261ffff1681526020016000600181111561038457fe5b815260200160011515815250600160008060149054906101000a900460ff1660ff1660ff16815260200190815260200160002060008201518160000190805190602001906103d3929190610b49565b5060208201518160010160006101000a81548160ff021916908360ff16021790555060408201518160010160016101000a81548161ffff021916908361ffff16021790555060608201518160010160036101000a81548160ff0219169083600181111561043c57fe5b021790555060808201518160010160046101000a81548160ff0219169083151502179055509050507fb7dc24968c35d5b9a67f3842cf7d89fa46d60605bc49d559cf0656d5dac126bb82600060149054906101000a900460ff1683600060018111156104a457fe5b600160405180806020018660ff1660ff1681526020018561ffff1661ffff1681526020018460ff1660ff16815260200183151515158152602001828103825287818151815260200191508051906020019080838360005b838110156105165780820151818401526020810190506104fb565b50505050905090810190601f1680156105435780820380516001836020036101000a031916815260200191505b50965050505050505060405180910390a16001600060149054906101000a900460ff1601600060146101000a81548160ff021916908360ff1602179055505050565b606060008060008085600160008260ff1660ff16815260200190815260200160002060010160049054906101000a900460ff1615156105c357600080fd5b600160008860ff1660ff1681526020019081526020016000206000018054600181600116156101000203166002900480601f0160208091040260200160405190810160405280929190818152602001828054600181600116156101000203166002900480156106735780601f1061064857610100808354040283529160200191610673565b820191906000526020600020905b81548152906001019060200180831161065657829003601f168201915b50505050509550600160008860ff1660ff16815260200190815260200160002060010160009054906101000a900460ff169450600160008860ff1660ff16815260200190815260200160002060010160019054906101000a900461ffff169350600160008860ff1660ff16815260200190815260200160002060010160039054906101000a900460ff16600181111561070857fe5b9250600160008860ff1660ff16815260200190815260200160002060010160049054906101000a900460ff1691508585858585955095509550955095505091939590929450565b6001602052806000526040600020600091509050806000018054600181600116156101000203166002900480601f0160208091040260200160405190810160405280929190818152602001828054600181600116156101000203166002900480156107fb5780601f106107d0576101008083540402835291602001916107fb565b820191906000526020600020905b8154815290600101906020018083116107de57829003601f168201915b5050505050908060010160009054906101000a900460ff16908060010160019054906101000a900461ffff16908060010160039054906101000a900460ff16908060010160049054906101000a900460ff16905085565b80600160008260ff1660ff16815260200190815260200160002060010160049054906101000a900460ff16151561088857600080fd5b816000600181111561089657fe5b600160008360ff1660ff16815260200190815260200160002060010160039054906101000a900460ff1660018111156108cb57fe5b1415156108d757600080fd5b600160008460ff1660ff16815260200190815260200160002060010160019054906101000a900461ffff168061ffff16341015151561091557600080fd5b60018060008660ff1660ff16815260200190815260200160002060010160036101000a81548160ff0219169083600181111561094d57fe5b02179055506000600160008660ff1660ff16815260200190815260200160002060010160046101000a81548160ff0219169083151502179055507fbdae531150535661df86d11bfeae60181a0083647dd702bd6c6eb53ca1c73ec7600160008660ff1660ff168152602001908152602001600020600001600160008760ff1660ff16815260200190815260200160002060010160009054906101000a900460ff16600160008860ff1660ff16815260200190815260200160002060010160019054906101000a900461ffff16600160008960ff1660ff16815260200190815260200160002060010160039054906101000a900460ff166001811115610a4e57fe5b600160008a60ff1660ff16815260200190815260200160002060010160049054906101000a900460ff1660405180806020018660ff1660ff1681526020018561ffff1661ffff1681526020018460ff1660ff16815260200183151515158152602001828103825287818154600181600116156101000203166002900481526020019150805460018160011615610100020316600290048015610b315780601f10610b0657610100808354040283529160200191610b31565b820191906000526020600020905b815481529060010190602001808311610b1457829003601f168201915b5050965050505050505060405180910390a150505050565b828054600181600116156101000203166002900490600052602060002090601f016020900481019282601f10610b8a57805160ff1916838001178555610bb8565b82800160010185558215610bb8579182015b82811115610bb7578251825591602001919060010190610b9c565b5b509050610bc59190610bc9565b5090565b610beb91905b80821115610be7576000816000905550600101610bcf565b5090565b9056fea165627a7a723058205642975b748ac1af127a0dd1b653a19d6071f9353ffa9c78b3fed9f13a11ecba0029',
	v: '0x02d0c333706a',
	r: '0x548ba929bde5f414bd05d0b00a6cc7bc1b3dc6045dc004d54345f73856fcb6dc',
	s: '0x057a5565fa443c87e65dc59d2badcaa21c9953b0078e95f4dbe068e4bdd4401a'
}


{
	"interface": {
		"functions": {
			"limes": {
				"inputs": [
					{
						"name": "",
						"type": "uint256"
					}
				],
				"outputs": [
					{
						"name": "name",
						"type": "string"
					},
					{
						"name": "carbohydrates",
						"type": "uint8"
					},
					{
						"name": "fat",
						"type": "uint8"
					},
					{
						"name": "protein",
						"type": "uint8"
					}
				],
				"payable": false,
				"type": "call",
				"name": "limes",
				"signature": "limes(uint256)",
				"sighash": "0x21310ecd"
			},
			"limes(uint256)": {
				"inputs": [
					{
						"name": "",
						"type": "uint256"
					}
				],
				"outputs": [
					{
						"name": "name",
						"type": "string"
					},
					{
						"name": "carbohydrates",
						"type": "uint8"
					},
					{
						"name": "fat",
						"type": "uint8"
					},
					{
						"name": "protein",
						"type": "uint8"
					}
				],
				"payable": false,
				"type": "call",
				"name": "limes",
				"signature": "limes(uint256)",
				"sighash": "0x21310ecd"
			},
			"createLime": {
				"inputs": [
					{
						"name": "_name",
						"type": "string"
					},
					{
						"name": "_carbohydrates",
						"type": "uint8"
					},
					{
						"name": "_fat",
						"type": "uint8"
					},
					{
						"name": "_protein",
						"type": "uint8"
					}
				],
				"outputs": [],
				"payable": false,
				"type": "transaction",
				"name": "createLime",
				"signature": "createLime(string,uint8,uint8,uint8)",
				"sighash": "0xe0b6fcfc"
			},
			"createLime(string,uint8,uint8,uint8)": {
				"inputs": [
					{
						"name": "_name",
						"type": "string"
					},
					{
						"name": "_carbohydrates",
						"type": "uint8"
					},
					{
						"name": "_fat",
						"type": "uint8"
					},
					{
						"name": "_protein",
						"type": "uint8"
					}
				],
				"outputs": [],
				"payable": false,
				"type": "transaction",
				"name": "createLime",
				"signature": "createLime(string,uint8,uint8,uint8)",
				"sighash": "0xe0b6fcfc"
			}
		},
		"events": {
			"FreshLime": {
				"name": "FreshLime",
				"signature": "FreshLime(string)",
				"inputs": [
					{
						"indexed": false,
						"name": "name",
						"type": "string"
					}
				],
				"topic": "0xe65ca226f7ab35846085554e9c72f162260bd2e4a6d6a752f0aacad4e0f18fe5",
				"anonymous": false
			},
			"FreshLime(string)": {
				"name": "FreshLime",
				"signature": "FreshLime(string)",
				"inputs": [
					{
						"indexed": false,
						"name": "name",
						"type": "string"
					}
				],
				"topic": "0xe65ca226f7ab35846085554e9c72f162260bd2e4a6d6a752f0aacad4e0f18fe5",
				"anonymous": false
			}
		},
		"abi": [
			{
				"constant": true,
				"inputs": [
					{
						"name": "",
						"type": "uint256"
					}
				],
				"name": "limes",
				"outputs": [
					{
						"name": "name",
						"type": "string"
					},
					{
						"name": "carbohydrates",
						"type": "uint8"
					},
					{
						"name": "fat",
						"type": "uint8"
					},
					{
						"name": "protein",
						"type": "uint8"
					}
				],
				"payable": false,
				"stateMutability": "view",
				"type": "function"
			},
			{
				"anonymous": false,
				"inputs": [
					{
						"indexed": false,
						"name": "name",
						"type": "string"
					}
				],
				"name": "FreshLime",
				"type": "event"
			},
			{
				"constant": false,
				"inputs": [
					{
						"name": "_name",
						"type": "string"
					},
					{
						"name": "_carbohydrates",
						"type": "uint8"
					},
					{
						"name": "_fat",
						"type": "uint8"
					},
					{
						"name": "_protein",
						"type": "uint8"
					}
				],
				"name": "createLime",
				"outputs": [],
				"payable": false,
				"stateMutability": "nonpayable",
				"type": "function"
			}
		],
		"deployFunction": {
			"inputs": [],
			"payable": true
		}
	},
	"provider": {
		"ready": {},
		"_lastBlockNumber": -2,
		"_balances": {},
		"_events": [],
		"_pollingInterval": 4000,
		"_emitted": {
			"block": -2,
			"t:0xe920f589be50a70583ab8a3d8d4b8371703d988aeb6e2ad8cc8905a84738b0bd": 283
		},
		"_fastQueryDate": 1548433478876,
		"connection": {
			"url": "http://localhost:8545"
		},
		"_network": {
			"chainId": 1548348852360,
			"name": "unknown"
		},
		"_fastBlockNumberPromise": {},
		"_fastBlockNumber": 283
	},
	"signer": {
		"signingKey": {
			"privateKey": "0x7ab741b57e8d94dd7e1a29055646bafde7010f38a900f55bbd7647880faa6ee8",
			"keyPair": {
				"privateKey": "0x7ab741b57e8d94dd7e1a29055646bafde7010f38a900f55bbd7647880faa6ee8",
				"publicKey": "0x041568d8fea8d31a1fc76876c8c84d86eec37ffbd4c3df1b2513b5ac40449f1b58d0d6ad7c2ee2c75fa2932567197e3d9a91c01cfc58c5ce21c412e9d565b159e4",
				"compressedPublicKey": "0x021568d8fea8d31a1fc76876c8c84d86eec37ffbd4c3df1b2513b5ac40449f1b58",
				"publicKeyBytes": [
					2,
					21,
					104,
					216,
					254,
					168,
					211,
					26,
					31,
					199,
					104,
					118,
					200,
					200,
					77,
					134,
					238,
					195,
					127,
					251,
					212,
					195,
					223,
					27,
					37,
					19,
					181,
					172,
					64,
					68,
					159,
					27,
					88
				]
			},
			"publicKey": "0x041568d8fea8d31a1fc76876c8c84d86eec37ffbd4c3df1b2513b5ac40449f1b58d0d6ad7c2ee2c75fa2932567197e3d9a91c01cfc58c5ce21c412e9d565b159e4",
			"address": "0xD9995BAE12FEe327256FFec1e3184d492bD94C31"
		},
		"provider": {
			"ready": {},
			"_lastBlockNumber": -2,
			"_balances": {},
			"_events": [],
			"_pollingInterval": 4000,
			"_emitted": {
				"block": -2,
				"t:0xe920f589be50a70583ab8a3d8d4b8371703d988aeb6e2ad8cc8905a84738b0bd": 283
			},
			"_fastQueryDate": 1548433478876,
			"connection": {
				"url": "http://localhost:8545"
			},
			"_network": {
				"chainId": 1548348852360,
				"name": "unknown"
			},
			"_fastBlockNumberPromise": {},
			"_fastBlockNumber": 283
		}
	},
	"estimate": {},
	"functions": {},
	"filters": {},
	"_events": [],
	"address": "0x64861aA582Ff95f9c4411a26627B78C16Ab1cAfD",
	"addressPromise": {},
	"deployTransaction": {
		"nonce": 140,
		"gasPrice": {
			"_hex": "0x77359400"
		},
		"gasLimit": {
			"_hex": "0x06691a"
		},
		"to": null,
		"value": {
			"_hex": "0x00"
		},
		"data": "0x608060405234801561001057600080fd5b50610567806100206000396000f3fe608060405234801561001057600080fd5b5060043610610053576000357c01000000000000000000000000000000000000000000000000000000009004806321310ecd14610058578063e0b6fcfc14610126575b600080fd5b6100846004803603602081101561006e57600080fd5b8101908080359060200190929190505050610208565b60405180806020018560ff1660ff1681526020018460ff1660ff1681526020018360ff1660ff168152602001828103825286818151815260200191508051906020019080838360005b838110156100e85780820151818401526020810190506100cd565b50505050905090810190601f1680156101155780820380516001836020036101000a031916815260200191505b509550505050505060405180910390f35b6102066004803603608081101561013c57600080fd5b810190808035906020019064010000000081111561015957600080fd5b82018360208201111561016b57600080fd5b8035906020019184600183028401116401000000008311171561018d57600080fd5b91908080601f016020809104026020016040519081016040528093929190818152602001838380828437600081840152601f19601f820116905080830192505050505050509192919290803560ff169060200190929190803560ff169060200190929190803560ff169060200190929190505050610306565b005b60008181548110151561021757fe5b9060005260206000209060020201600091509050806000018054600181600116156101000203166002900480601f0160208091040260200160405190810160405280929190818152602001828054600181600116156101000203166002900480156102c35780601f10610298576101008083540402835291602001916102c3565b820191906000526020600020905b8154815290600101906020018083116102a657829003601f168201915b5050505050908060010160009054906101000a900460ff16908060010160019054906101000a900460ff16908060010160029054906101000a900460ff16905084565b60008360ff161415151561031957600080fd5b60006080604051908101604052808681526020018560ff1681526020018460ff1681526020018360ff1681525090806001815401808255809150509060018203906000526020600020906002020160009091929091909150600082015181600001908051906020019061038d929190610496565b5060208201518160010160006101000a81548160ff021916908360ff16021790555060408201518160010160016101000a81548160ff021916908360ff16021790555060608201518160010160026101000a81548160ff021916908360ff1602179055505050507fe65ca226f7ab35846085554e9c72f162260bd2e4a6d6a752f0aacad4e0f18fe5846040518080602001828103825283818151815260200191508051906020019080838360005b8381101561045657808201518184015260208101905061043b565b50505050905090810190601f1680156104835780820380516001836020036101000a031916815260200191505b509250505060405180910390a150505050565b828054600181600116156101000203166002900490600052602060002090601f016020900481019282601f106104d757805160ff1916838001178555610505565b82800160010185558215610505579182015b828111156105045782518255916020019190600101906104e9565b5b5090506105129190610516565b5090565b61053891905b8082111561053457600081600090555060010161051c565b5090565b9056fea165627a7a7230582020527bbbe4acb94f72ffd994b85e6ec32941e57f34e85f933f4ad0bf5ce7e74f0029",
		"chainId": 1548348852360,
		"v": 3096697704755,
		"r": "0xb6429e168c8b2475e096cee8d984c8413513d04eb2a001e22d4b1a8ca997faf5",
		"s": "0x40628107eb5cd9ea4dfdb1e3bccda74bd619577d4986289f2ee2e3113d578ada",
		"from": "0xD9995BAE12FEe327256FFec1e3184d492bD94C31",
		"hash": "0xe920f589be50a70583ab8a3d8d4b8371703d988aeb6e2ad8cc8905a84738b0bd"
	},
	"_deployed": {}
}